020000002310100000000001160020130607                        51201306070020300005689230801829596JOSE LUIS SILVA CEJA                    11784845                                ASESORIA INTEGRAL PROFESIONAL  SA DE CV 0000000000000004601151Ike Soluciones                          04                     000000000002013060701                                                                                 
020000003310100000000001160020130607                        51201306070020300005689233577465791BRAULIA VALENZUELA PARDO                9632179                                 ASESORIA INTEGRAL PROFESIONAL  SA DE CV 0000000000000004600651Ike Soluciones                          10                     000000000002013060701                                                                                 
020000004310100000000000580020130607                        51201306070020300005689234331396892CLAUDIA LUCIA VILLEGAS NUÑEZ            11489833                                ASESORIA INTEGRAL PROFESIONAL  SA DE CV 0000000000000004601123Ike Soluciones                          04                     000000000002013060701                                                                                 
020000005300100000000000580020130607                        51201306070020300005689237119815595VANESSA AIDE TUYUB CHAN                 14898500                                ASESORIA INTEGRAL PROFESIONAL  SA DE CV 0000000000000004602150Ike Soluciones                          00                     000000015602013060701                                                                                 
020000006310100000000000580020130607                        51201306070020300005689233570051292ALFREDO ESTIEL NAVARRO ARMENTA          11452509                                ASESORIA INTEGRAL PROFESIONAL  SA DE CV 0000000000000004601015Ike Soluciones                          04                     000000000002013060701                                                                                 
020000007310100000000000580020130607                        51201306070020300005689237095815791BERENICE MARIA LUISA TORRES TOVAR       6896493                                 ASESORIA INTEGRAL PROFESIONAL  SA DE CV 0000000000000004599768Ike Soluciones                          04                     000000000002013060701                                                                                 
020000008310100000000001160020130607                        51201306070020300005689234387730192GERARDO GALLEGOS ESPINOSA               15754039                                ASESORIA INTEGRAL PROFESIONAL  SA DE CV 0000000000000004602518Ike Soluciones                          04                     000000000002013060701                                                                                 
020000009310100000000001160020130607                        51201306070020300005689233809484693CINTHIA ESTEFANI DEL CARMEN PLIEGO VALDE13166312                                ASESORIA INTEGRAL PROFESIONAL  SA DE CV 0000000000000004601727Ike Soluciones                          04                     000000000002013060701                                                                                 
020000010310100000000000580020130607                        51201306070020300005689230173325395JOEL ANTONIO ALONSO PAULIN              11818882                                ASESORIA INTEGRAL PROFESIONAL  SA DE CV 0000000000000004601268Ike Soluciones                          04                     000000000002013060701                                                                                 
020000011310100000000001160020130607                        51201306070020300005689230386878190HUGO ALBERTO GARCIA SARMIENTO           15730738                                ASESORIA INTEGRAL PROFESIONAL  SA DE CV 0000000000000004602422Ike Soluciones                          04                     000000000002013060701                                                                                 
020000012310100000000000580020130607                        51201306070020300005689230227602791MARIA JOSE SALAZAR BORQUEZ              22749765                                ASESORIA INTEGRAL PROFESIONAL  SA DE CV 0000000000000004602875Ike Soluciones                          04                     000000000002013060701                                                                                 
020000013310100000000000580020130607                        51201306070020300005689237141051490FORTINO HECTOR BELLO COLIN              8198630                                 ASESORIA INTEGRAL PROFESIONAL  SA DE CV 0000000000000004600171Ike Soluciones                          10                     000000000002013060701                                                                                 
020000014310100000000001160020130607                        51201306070020300005689233551674393CLARISA ROSALINA MONTALVO PADILLA       6883740                                 ASESORIA INTEGRAL PROFESIONAL  SA DE CV 0000000000000004599734Ike Soluciones                          04                     000000000002013060701                                                                                 
020000015310100000000001160020130607                        51201306070020300005689230603834299ALEJANDRO DE LA ROSA REYNOSO            22788435                                ASESORIA INTEGRAL PROFESIONAL  SA DE CV 0000000000000004603179Ike Soluciones                          04                     000000000002013060701                                                                                 
020000016310100000000000580020130607                        51201306070020300005689236541426192ALEJANDRO SANTANA RAMIREZ               6838800                                 ASESORIA INTEGRAL PROFESIONAL  SA DE CV 0000000000000004599589Ike Soluciones                          10                     000000000002013060701                                                                                 
020000017310100000000001160020130607                        51201306070020300005689234212452491HERWIN CRUZ MORENO                      8610832                                 ASESORIA INTEGRAL PROFESIONAL  SA DE CV 0000000000000004600268Ike Soluciones                          04                     000000000002013060701                                                                                 
020000018310100000000000580020130607                        51201306070020300005689236381318897ARTURO HERNANDEZ GARCIA                 8177530                                 ASESORIA INTEGRAL PROFESIONAL  SA DE CV 0000000000000004600124Ike Soluciones                          04                     000000000002013060701                                                                                 
020000019310100000000000580020130607                        51201306070020300005689236488854893SALVADOR ANTONIO CABRERA                5439897                                 ASESORIA INTEGRAL PROFESIONAL  SA DE CV 0000000000000004599176Ike Soluciones                          04                     000000000002013060701                                                                                 
020000020310100000000001160020130607                        51201306070020300005689234610289792ANA LILIANA CORTEZ ORTIZ                6909251                                 ASESORIA INTEGRAL PROFESIONAL  SA DE CV 0000000000000004599802Ike Soluciones                          04                     000000000002013060701                                                                                 
020000021300100000000000580020130607                        51201306070020300005689234343698392ADRIAN PRADO MORA                       13915365                                ASESORIA INTEGRAL PROFESIONAL  SA DE CV 0000000000000004601917Ike Soluciones                          00                     000000012982013060701                                                                                 
020000022310100000000000580020130607                        51201306070020300005689233760896596BRICELDA NIÑO ROJAS                     8187970                                 ASESORIA INTEGRAL PROFESIONAL  SA DE CV 0000000000000004600153Ike Soluciones                          04                     000000000002013060701                                                                                 
020000023310100000000000580020130607                        51201306070020300005689230979054597BENITO ROMERO REA                       13191183                                ASESORIA INTEGRAL PROFESIONAL  SA DE CV 0000000000000004601842Ike Soluciones                          04                     000000000002013060701                                                                                 
020000024310100000000000580020130607                        51201306070020300005689230758431891MIGUEL ANGEL MONTAÑO GUEVARA            13189871                                ASESORIA INTEGRAL PROFESIONAL  SA DE CV 0000000000000004601834Ike Soluciones                          04                     000000000002013060701                                                                                 
020000025310100000000001160020130607                        51201306070020300005689236352253891HUMBERTO HUAPE RUIZ                     10229380                                ASESORIA INTEGRAL PROFESIONAL  SA DE CV 0000000000000004600881Ike Soluciones                          04                     000000000002013060701                                                                                 
020000026310100000000000580020130607                        51201306070020300005689234224128998XOCHITL HERNANDEZ CHAVEZ                9946172                                 ASESORIA INTEGRAL PROFESIONAL  SA DE CV 0000000000000004600806Ike Soluciones                          04                     000000000002013060701                                                                                 
020000027310100000000000580020130607                        51201306070020300005689237161800594JOHANA NATALIE BAUTISTA ORTEGA          12132664                                ASESORIA INTEGRAL PROFESIONAL  SA DE CV 0000000000000004601361Ike Soluciones                          04                     000000000002013060701                                                                                 
020000028310100000000000580020130607                        51201306070020300005689230055248910JORGE ENRIQUE PECH Y LOPE               12149988                                ASESORIA INTEGRAL PROFESIONAL  SA DE CV 0000000000000004601421Ike Soluciones                          04                     000000000002013060701                                                                                 
020000029310100000000000580020130607                        51201306070020300005689230852526190LIDIA FERNANDEZ HERNANDEZ               12667770                                ASESORIA INTEGRAL PROFESIONAL  SA DE CV 0000000000000004601515Ike Soluciones                          04                     000000000002013060701                                                                                 
020000030310100000000000580020130607                        51201306070020300005689230832789199PEDRO ANAYA VELAZQUEZ                   11785061                                ASESORIA INTEGRAL PROFESIONAL  SA DE CV 0000000000000004601153Ike Soluciones                          04                     000000000002013060701                                                                                 
020000031310100000000000580020130607                        51201306070020300005689230333057195ALBERTO GUERRIER BERNAL                 38430707                                ASESORIA INTEGRAL PROFESIONAL  SA DE CV 0000000000000004603722Ike Soluciones                          04                     000000000002013060701                                                                                 
020000032310100000000000580020130607                        51201306070020300005689234376914997OSCAR GALLEGOS VILLARREAL               13166698                                ASESORIA INTEGRAL PROFESIONAL  SA DE CV 0000000000000004601729Ike Soluciones                          04                     000000000002013060701                                                                                 
020000033310100000000000580020130607                        51201306070020300005689230408758594JOSE NEFI TZUC CABRERA                  14899067                                ASESORIA INTEGRAL PROFESIONAL  SA DE CV 0000000000000004602158Ike Soluciones                          04                     000000000002013060701                                                                                 
020000034310100000000001160020130607                        51201306070020300005689230158649991CLAUDIA NOHEMI ARAUJO GAITAN            9624033                                 ASESORIA INTEGRAL PROFESIONAL  SA DE CV 0000000000000004600623Ike Soluciones                          10                     000000000002013060701                                                                                 
020000035310100000000000580020130607                        51201306070020300005689230575776296JOSE GUILLERMO MOYA HERNANDEZ           22823044                                ASESORIA INTEGRAL PROFESIONAL  SA DE CV 0000000000000004603639Ike Soluciones                          10                     000000000002013060701                                                                                 
020000036310100000000000580020130607                        51201306070020300005689234677456797LILIANA HERNANDEZ GUZMAN                5605414                                 ASESORIA INTEGRAL PROFESIONAL  SA DE CV 0000000000000004599486Ike Soluciones                          04                     000000000002013060701                                                                                 
020000037310100000000000580020130607                        51201306070020300005689230279894593CARLOS BULMARO GORDILLO SOLORZANO       9631210                                 ASESORIA INTEGRAL PROFESIONAL  SA DE CV 0000000000000004600649Ike Soluciones                          04                     000000000002013060701                                                                                 
020000038310100000000000580020130607                        51201306070020300005689230844358991PROSPERO HERNANDEZ DELGADO              22784036                                ASESORIA INTEGRAL PROFESIONAL  SA DE CV 0000000000000004603149Ike Soluciones                          04                     000000000002013060701                                                                                 
020000039310100000000000580020130607                        51201306070020300005689230505358090FRANCISCO LOPEZ SOLARES                 22761254                                ASESORIA INTEGRAL PROFESIONAL  SA DE CV 0000000000000004602993Ike Soluciones                          04                     000000000002013060701                                                                                 
020000040310100000000000580020130607                        51201306070020300005689233631282191ROGELIO GONZALEZ RIOS                   12156369                                ASESORIA INTEGRAL PROFESIONAL  SA DE CV 0000000000000004601441Ike Soluciones                          04                     000000000002013060701                                                                                 
020000041310100000000000580020130607                        51201306070020300005689234386530395ADOLFO WENCESLAO YESCAS DUANA           14905824                                ASESORIA INTEGRAL PROFESIONAL  SA DE CV 0000000000000004602197Ike Soluciones                          04                     000000000002013060701                                                                                 
020000042310100000000001160020130607                        51201306070020300005689234634847195TANIA BARBOSA TREVIÑO                   8854225                                 ASESORIA INTEGRAL PROFESIONAL  SA DE CV 0000000000000004600504Ike Soluciones                          04                     000000000002013060701                                                                                 
020000043310100000000000580020130607                        51201306070020300005689236251012992GUADALUPE MAULEON MOLINA                8200073                                 ASESORIA INTEGRAL PROFESIONAL  SA DE CV 0000000000000004600175Ike Soluciones                          04                     000000000002013060701                                                                                 
020000044300100000000000580020130607                        51201306070020300005689237100969690ERIKA CANSECO HERRERA                   9966264                                 ASESORIA INTEGRAL PROFESIONAL  SA DE CV 0000000000000004600867Ike Soluciones                          00                     000000020112013060701                                                                                 
020000045310100000000000580020130607                        51201306070020300005689230854986897NICOLAS DAGOBERTO RUIZ ANICA            14890696                                ASESORIA INTEGRAL PROFESIONAL  SA DE CV 0000000000000004602111Ike Soluciones                          04                     000000000002013060701                                                                                 
020000046310100000000000580020130607                        51201306070020300005689230172139690MARIO CORDOVA CHAN                      22773234                                ASESORIA INTEGRAL PROFESIONAL  SA DE CV 0000000000000004603045Ike Soluciones                          04                     000000000002013060701                                                                                 
020000047310100000000000580020130607                        51201306070020300005689230147670894RUBEN AYALA LEON                        14906819                                ASESORIA INTEGRAL PROFESIONAL  SA DE CV 0000000000000004602203Ike Soluciones                          04                     000000000002013060701                                                                                 
020000048310100000000000580020130607                        51201306070020300005689234032425198MARIA ELENA GARCIA SANCHEZ              8207018                                 ASESORIA INTEGRAL PROFESIONAL  SA DE CV 0000000000000004600199Ike Soluciones                          04                     000000000002013060701                                                                                 
020000049310100000000000580020130607                        51201306070020300005689236007805298JOSE EDGAR MARTINEZ MONTAÑEZ            12125905                                ASESORIA INTEGRAL PROFESIONAL  SA DE CV 0000000000000004601332Ike Soluciones                          04                     000000000002013060701                                                                                 
020000050310100000000001160020130607                        51201306070020300005689234252001695INOCENCIA CORDOBA ORTEGA                13941647                                ASESORIA INTEGRAL PROFESIONAL  SA DE CV 0000000000000004602018Ike Soluciones                          04                     000000000002013060701                                                                                 
020000051310100000000000580020130607                        51201306070020300005689230742740696WENDY ARACELY CARDENAS MAZA             12147674                                ASESORIA INTEGRAL PROFESIONAL  SA DE CV 0000000000000004601413Ike Soluciones                          04                     000000000002013060701                                                                                 
020000052310100000000000580020130607                        51201306070020300005689233869093095DOMINGO AVALOS SALAZAR                  9618151                                 ASESORIA INTEGRAL PROFESIONAL  SA DE CV 0000000000000004600609Ike Soluciones                          04                     000000000002013060701                                                                                 
020000053310100000000000580020130607                        51201306070020300005689230336031494AMERICO SANCHEZ SANCHEZ                 22778306                                ASESORIA INTEGRAL PROFESIONAL  SA DE CV 0000000000000004603092Ike Soluciones                          04                     000000000002013060701                                                                                 
020000054310100000000000580020130607                        51201306070020300005689230333301890ILDEGARDO TORRES WILSON                 10244162                                ASESORIA INTEGRAL PROFESIONAL  SA DE CV 0000000000000004600917Ike Soluciones                          04                     000000000002013060701                                                                                 
020000055310100000000001160020130607                        51201306070020300005689234269200199PAULA VILLANUEVA MARTINEZ               11824270                                ASESORIA INTEGRAL PROFESIONAL  SA DE CV 0000000000000004601294Ike Soluciones                          10                     000000000002013060701                                                                                 
020000056310100000000001160020130607                        51201306070020300005689236444253990ARMANDO VIVAS ALCALA                    9655194                                 ASESORIA INTEGRAL PROFESIONAL  SA DE CV 0000000000000004600700Ike Soluciones                          04                     000000000002013060701                                                                                 
020000057310100000000001160020130607                        51201306070020300005689234343919798MARIA GUADALUPE LOPEZ ROMERO            38435115                                ASESORIA INTEGRAL PROFESIONAL  SA DE CV 0000000000000004603754Ike Soluciones                          04                     000000000002013060701                                                                                 
020000058310100000000000580020130607                        51201306070020300005689235661005596MARIA ISABEL SARA ESPIRITU PEREZ        22824908                                ASESORIA INTEGRAL PROFESIONAL  SA DE CV 0000000000000004603663Ike Soluciones                          04                     000000000002013060701                                                                                 
020000059310100000000000580020130607                        51201306070020300005689233711682294JOSE ANTONIO GUERRERO TZINTZUN          22796159                                ASESORIA INTEGRAL PROFESIONAL  SA DE CV 0000000000000004603294Ike Soluciones                          04                     000000000002013060701                                                                                 
020000060310100000000001160020130607                        51201306070020300005689235378116017LUIS SATURNINO VILLANUEVA BARRADAS      7702348                                 ASESORIA INTEGRAL PROFESIONAL  SA DE CV 0000000000000004599936Ike Soluciones                          04                     000000000002013060701                                                                                 
020000061310100000000000580020130607                        51201306070020300005689237145320594MARIA ALEJANDRA CARRILLO RIPOLL         15752032                                ASESORIA INTEGRAL PROFESIONAL  SA DE CV 0000000000000004602510Ike Soluciones                          04                     000000000002013060701                                                                                 
020000062310100000000000580020130607                        51201306070020300005689234146483497AGUSTIN CORTES GONZALEZ                 10271475                                ASESORIA INTEGRAL PROFESIONAL  SA DE CV 0000000000000004600951Ike Soluciones                          10                     000000000002013060701                                                                                 
020000063310100000000000580020130607                        51201306070020300005689230317436696PILAR ALCARAZ MONTAÑO                   12149357                                ASESORIA INTEGRAL PROFESIONAL  SA DE CV 0000000000000004601415Ike Soluciones                          04                     000000000002013060701                                                                                 
020000064310100000000001160020130607                        51201306070020300005689238005558697ALFONSO GUTIERREZ CESPEDES              14894809                                ASESORIA INTEGRAL PROFESIONAL  SA DE CV 0000000000000004602136Ike Soluciones                          04                     000000000002013060701                                                                                 
020000065310100000000000580020130607                        51201306070020300005689234232838091ENRIQUE PALMA VENTURA                   10277564                                ASESORIA INTEGRAL PROFESIONAL  SA DE CV 0000000000000004600963Ike Soluciones                          04                     000000000002013060701                                                                                 
020000066310100000000001160020130607                        51201306070020300005689236007236791ADALBERTO BELLO LLANES                  16802768                                ASESORIA INTEGRAL PROFESIONAL  SA DE CV 0000000000000004602669Ike Soluciones                          04                     000000000002013060701                                                                                 
020000067310100000000001160020130607                        51201306070020300005689230996969793ANUBIS SAMAEL REQUENA CASAS             22783122                                ASESORIA INTEGRAL PROFESIONAL  SA DE CV 0000000000000004603135Ike Soluciones                          04                     000000000002013060701                                                                                 
020000068310100000000000580020130607                        51201306070020300005689237082968397JESUS CORREA YERA                       6841198                                 ASESORIA INTEGRAL PROFESIONAL  SA DE CV 0000000000000004599600Ike Soluciones                          04                     000000000002013060701                                                                                 
020000069300100000000000580020130607                        51201306070020300005689230121261095NANCY HERNANDEZ SILLAS                  10234217                                ASESORIA INTEGRAL PROFESIONAL  SA DE CV 0000000000000004600895Ike Soluciones                          00                     000000006542013060701                                                                                 
020000070310100000000001160020130607                        51201306070020300005689233580970191JORGE OMAR RINCON SUAREZ                6847545                                 ASESORIA INTEGRAL PROFESIONAL  SA DE CV 0000000000000004599616Ike Soluciones                          04                     000000000002013060701                                                                                 
020000071310100000000000580020130607                        51201306070020300005689233951612091NORMA ANGELICA ORTEGA CERVANTES         12123645                                ASESORIA INTEGRAL PROFESIONAL  SA DE CV 0000000000000004601323Ike Soluciones                          04                     000000000002013060701                                                                                 
020000072310100000000000580020130607                        51201306070020300005689230010179294JONATAN OSVALDO HERNANDEZ NAVA          14903603                                ASESORIA INTEGRAL PROFESIONAL  SA DE CV 0000000000000004602182Ike Soluciones                          04                     000000000002013060701                                                                                 
020000073310100000000000580020130607                        51201306070020300005689236356296698MARIA DE LOS ANGELES MEDRANO FRANCO     4622228                                 ASESORIA INTEGRAL PROFESIONAL  SA DE CV 0000000000000004599015Ike Soluciones                          04                     000000000002013060701                                                                                 
020000074310100000000000580020130607                        51201306070020300005689233527858392MARIA ELENA FLORES DURAND               5452491                                 ASESORIA INTEGRAL PROFESIONAL  SA DE CV 0000000000000004599200Ike Soluciones                          04                     000000000002013060701                                                                                 
020000075310100000000001160020130607                        51201306070020300005689234623105290GERARDO GIL FLORES MORENO               16796272                                ASESORIA INTEGRAL PROFESIONAL  SA DE CV 0000000000000004602624Ike Soluciones                          04                     000000000002013060701                                                                                 
020000076310100000000001160020130607                        51201306070020300005689230707883192HEVI LEVI RIOS CUEVAS                   22776390                                ASESORIA INTEGRAL PROFESIONAL  SA DE CV 0000000000000004603078Ike Soluciones                          04                     000000000002013060701                                                                                 
020000077310100000000000580020130607                        51201306070020300005689230528583393JORGE ALEJANDRO LINARTE MARQUEZ         22801207                                ASESORIA INTEGRAL PROFESIONAL  SA DE CV 0000000000000004603376Ike Soluciones                          04                     000000000002013060701                                                                                 
020000078310100000000001160020130607                        51201306070020300005689230678463891RAUL FRANCISCO CONTRERAS HERNANDEZ      22797992                                ASESORIA INTEGRAL PROFESIONAL  SA DE CV 0000000000000004603321Ike Soluciones                          04                     000000000002013060701                                                                                 
020000079310100000000000580020130607                        51201306070020300005689234049811398HOMERO GOMEZ ISLAS                      6861262                                 ASESORIA INTEGRAL PROFESIONAL  SA DE CV 0000000000000004599669Ike Soluciones                          04                     000000000002013060701                                                                                 
020000080310100000000000580020130607                        51201306070020300005689236011460494GEORGINA PATRICIA RENTERIA MONTERRUBIO  13942896                                ASESORIA INTEGRAL PROFESIONAL  SA DE CV 0000000000000004602024Ike Soluciones                          04                     000000000002013060701                                                                                 
020000081310100000000000580020130607                        51201306070020300005689233742607392AURELIO ANTONIO LEYVA CASTRO            8670117                                 ASESORIA INTEGRAL PROFESIONAL  SA DE CV 0000000000000004600451Ike Soluciones                          04                     000000000002013060701                                                                                 
020000082310100000000000580020130607                        51201306070020300005689230456946695GUSTAVO CAUDILLO MARQUEZ                22804934                                ASESORIA INTEGRAL PROFESIONAL  SA DE CV 0000000000000004603435Ike Soluciones                          04                     000000000002013060701                                                                                 
020000083310100000000000580020130607                        51201306070020300005689235075107590ALVARO VAZQUEZ FERNANDEZ                9949299                                 ASESORIA INTEGRAL PROFESIONAL  SA DE CV 0000000000000004600814Ike Soluciones                          04                     000000000002013060701                                                                                 
020000084310100000000000580020130607                        51201306070020300005689233597198795ARMANDO PATRICIO CAVAZOS GUERRA         38438112                                ASESORIA INTEGRAL PROFESIONAL  SA DE CV 0000000000000004603766Ike Soluciones                          04                     000000000002013060701                                                                                 
020000085310100000000000580020130607                        51201306070020300005689236335175997MARIA CONCEPCION RAMIREZ SERRANO        4631834                                 ASESORIA INTEGRAL PROFESIONAL  SA DE CV 0000000000000004599035Ike Soluciones                          01                     000000000002013060701                                                                                 
020000086310100000000001160020130607                        51201306070020300005689234350065691MARCO ANTONIO TELLEZ GONZALEZ           13954624                                ASESORIA INTEGRAL PROFESIONAL  SA DE CV 0000000000000004602062Ike Soluciones                          04                     000000000002013060701                                                                                 
020000087310100000000000580020130607                        51201306070020300005689230269359193ALEXANDER ROBLES VAZQUEZ                8629962                                 ASESORIA INTEGRAL PROFESIONAL  SA DE CV 0000000000000004600316Ike Soluciones                          04                     000000000002013060701                                                                                 
020000088310100000000000580020130607                        51201306070020300005689230970450893MARIA GUADALUPE ZAMORA BAUTISTA         22806904                                ASESORIA INTEGRAL PROFESIONAL  SA DE CV 0000000000000004603457Ike Soluciones                          04                     000000000002013060701                                                                                 
020000089310100000000000580020130607                        51201306070020300005689230467256399ELSA BEIZA YEPEZ                        16793544                                ASESORIA INTEGRAL PROFESIONAL  SA DE CV 0000000000000004602600Ike Soluciones                          04                     000000000002013060701                                                                                 
020000090300100000000000580020130607                        51201306070020300005689230053200892OLGA CUEVAS VALDEZ                      22794135                                ASESORIA INTEGRAL PROFESIONAL  SA DE CV 0000000000000004603254Ike Soluciones                          00                     000000010402013060701                                                                                 
020000091310100000000001160020130607                        51201306070020300005689234243670699HUMBERTO ROMERO CARRILLO                12141036                                ASESORIA INTEGRAL PROFESIONAL  SA DE CV 0000000000000004601389Ike Soluciones                          04                     000000000002013060701                                                                                 
020000092310100000000000580020130607                        51201306070020300005689236343748389YOLANDA PATRICIA CEBALLOS AMAYA         16822821                                ASESORIA INTEGRAL PROFESIONAL  SA DE CV 0000000000000004602767Ike Soluciones                          04                     000000000002013060701                                                                                 
020000093310100000000000580020130607                        51201306070020300005689230902869897ROSSMERY GARCIA JAVIER                  12664027                                ASESORIA INTEGRAL PROFESIONAL  SA DE CV 0000000000000004601494Ike Soluciones                          04                     000000000002013060701                                                                                 
020000094310100000000001160020130607                        51201306070020300005689230176126891GONZALO NERI SOLIS                      6887682                                 ASESORIA INTEGRAL PROFESIONAL  SA DE CV 0000000000000004599748Ike Soluciones                          04                     000000000002013060701                                                                                 
020000095310100000000000580020130607                        51201306070020300005689230062376998JOSE MARCIAL MORAN TURRUBIATE           22801439                                ASESORIA INTEGRAL PROFESIONAL  SA DE CV 0000000000000004603382Ike Soluciones                          04                     000000000002013060701                                                                                 
020000096310100000000001160020130607                        51201306070020300005689233922902498DAVID RAMIREZ LOPEZ                     11810053                                ASESORIA INTEGRAL PROFESIONAL  SA DE CV 0000000000000004601244Ike Soluciones                          10                     000000000002013060701                                                                                 
020000097310100000000001160020130607                        51201306070020300005689233997045496JACOBO ROBERTO MARTINEZ CARMONA         8652331                                 ASESORIA INTEGRAL PROFESIONAL  SA DE CV 0000000000000004600393Ike Soluciones                          04                     000000000002013060701                                                                                 
020000098310100000000001160020130607                        51201306070020300005689233795855799FELIX IZQUIERDO MONTIEL                 7665580                                 ASESORIA INTEGRAL PROFESIONAL  SA DE CV 0000000000000004599838Ike Soluciones                          04                     000000000002013060701                                                                                 
020000099310100000000000580020130607                        51201306070020300005689234656016893GLORIA ANGELICA SOLANO DE LA PAZ        12131893                                ASESORIA INTEGRAL PROFESIONAL  SA DE CV 0000000000000004601353Ike Soluciones                          04                     000000000002013060701                                                                                 
020000100310100000000001160020130607                        51201306070020300005689230267897194KARINA ARCINEDA URIBE                   22796304                                ASESORIA INTEGRAL PROFESIONAL  SA DE CV 0000000000000004603296Ike Soluciones                          04                     000000000002013060701                                                                                 
020000101310100000000000580020130607                        51201306070020300005689236541009394EVER NAJERA SANTOS                      8162089                                 ASESORIA INTEGRAL PROFESIONAL  SA DE CV 0000000000000004600064Ike Soluciones                          04                     000000000002013060701                                                                                 
020000102310100000000000580020130607                        51201306070020300005689234514934383CECILIA GARCIA DIAZ                     16810342                                ASESORIA INTEGRAL PROFESIONAL  SA DE CV 0000000000000004602709Ike Soluciones                          04                     000000000002013060701                                                                                 
020000103310100000000001160020130607                        51201306070020300005689234060689095ROBERTO CERVANTES FUENTES               5545329                                 ASESORIA INTEGRAL PROFESIONAL  SA DE CV 0000000000000004599398Ike Soluciones                          04                     000000000002013060701                                                                                 
020000104310100000000000580020130607                        51201306070020300005689234615048094LUIS RIVERA ALMANZA                     8204127                                 ASESORIA INTEGRAL PROFESIONAL  SA DE CV 0000000000000004600189Ike Soluciones                          04                     000000000002013060701                                                                                 
020000105300100000000000580020130607                        51201306070020300005689234656618797JOSE PADRON ROSADO                      8210798                                 ASESORIA INTEGRAL PROFESIONAL  SA DE CV 0000000000000004600206Ike Soluciones                          00                     000000007872013060701                                                                                 
020000106310100000000000580020130607                        51201306070020300005689230454016798JOSE BARRIGA MORALES                    22795235                                ASESORIA INTEGRAL PROFESIONAL  SA DE CV 0000000000000004603274Ike Soluciones                          10                     000000000002013060701                                                                                 
020000107310100000000000580020130607                        51201306070020300005689237130557598JUAN ANTONIO REYES TORRES               13924233                                ASESORIA INTEGRAL PROFESIONAL  SA DE CV 0000000000000004601972Ike Soluciones                          04                     000000000002013060701                                                                                 
020000108310100000000000580020130607                        51201306070020300005689237128540796NICOLAS RODRIGUEZ HERNANDEZ             9932917                                 ASESORIA INTEGRAL PROFESIONAL  SA DE CV 0000000000000004600762Ike Soluciones                          04                     000000000002013060701                                                                                 
020000109310100000000000580020130607                        51201306070020300005689237121628994BELINDA GEORGINA TABLERO HERNANDEZ      12663579                                ASESORIA INTEGRAL PROFESIONAL  SA DE CV 0000000000000004601488Ike Soluciones                          04                     000000000002013060701                                                                                 
020000110310100000000000580020130607                        51201306070020300005689234540488495SALVADOR MANUEL GONZALEZ MONTUY         4622694                                 ASESORIA INTEGRAL PROFESIONAL  SA DE CV 0000000000000004599020Ike Soluciones                          04                     000000000002013060701                                                                                 
020000111310100000000000580020130607                        51201306070020300005689230447669190ERNESTINA ROBLEDO REYES                 22779817                                ASESORIA INTEGRAL PROFESIONAL  SA DE CV 0000000000000004603106Ike Soluciones                          04                     000000000002013060701                                                                                 
020000112310100000000001160020130607                        51201306070020300005689237157520792ROSA SUSANA CUADROS TELLO               8878647                                 ASESORIA INTEGRAL PROFESIONAL  SA DE CV 0000000000000004600550Ike Soluciones                          04                     000000000002013060701                                                                                 
020000113310100000000000580020130607                        51201306070020300005689230159659186MARIA TERESA CARUS DOCAL                8174379                                 ASESORIA INTEGRAL PROFESIONAL  SA DE CV 0000000000000004600114Ike Soluciones                          10                     000000000002013060701                                                                                 
020000114310100000000000580020130607                        51201306070020300005689230949587296ERICK DANIEL PEREZ AVILA                22756267                                ASESORIA INTEGRAL PROFESIONAL  SA DE CV 0000000000000004602946Ike Soluciones                          04                     000000000002013060701                                                                                 
020000115310100000000001160020130607                        51201306070020300005689230406438991FLOR MARIA FARIAS TORRES                16823854                                ASESORIA INTEGRAL PROFESIONAL  SA DE CV 0000000000000004602775Ike Soluciones                          04                     000000000002013060701                                                                                 
020000116310100000000000580020130607                        51201306070020300005689230533776198JUAN ANTONIO CAMACHO GONZALEZ           22800176                                ASESORIA INTEGRAL PROFESIONAL  SA DE CV 0000000000000004603360Ike Soluciones                          04                     000000000002013060701                                                                                 
020000117310100000000001160020130607                        51201306070020300005689238023768195HECTOR DARIO MARTINEZ AGUAYO            22795589                                ASESORIA INTEGRAL PROFESIONAL  SA DE CV 0000000000000004603278Ike Soluciones                          04                     000000000002013060701                                                                                 
020000118310100000000000580020130607                        51201306070020300005689234234421995FIDEL AURELIO LOPEZ HUERTA              12664505                                ASESORIA INTEGRAL PROFESIONAL  SA DE CV 0000000000000004601502Ike Soluciones                          04                     000000000002013060701                                                                                 
020000119310100000000001160020130607                        51201306070020300005689237013829495IRMA CHAPARRO ESTRADA                   15747030                                ASESORIA INTEGRAL PROFESIONAL  SA DE CV 0000000000000004602494Ike Soluciones                          10                     000000000002013060701                                                                                 
020000120310100000000000580020130607                        51201306070020300005689230133440797ROSA ZEFERINO HERNANDEZ                 15752653                                ASESORIA INTEGRAL PROFESIONAL  SA DE CV 0000000000000004602514Ike Soluciones                          04                     000000000002013060701                                                                                 
020000121310100000000001160020130607                        51201306070020300005689236015316296MARIA LUISA MADERO FERNANDEZ DEL CASTILL5526507                                 ASESORIA INTEGRAL PROFESIONAL  SA DE CV 0000000000000004599358Ike Soluciones                          04                     000000000002013060701                                                                                 
020000122310100000000000580020130607                        51201306070020300005689237137673190MARIA DEL ROSARIO AVALOS MONTUFAR       13929373                                ASESORIA INTEGRAL PROFESIONAL  SA DE CV 0000000000000004602000Ike Soluciones                          10                     000000000002013060701                                                                                 
020000123300100000000000580020130607                        51201306070020300005689230696188991VERONICA EDLIN SANTOS HEREDIA           22796134                                ASESORIA INTEGRAL PROFESIONAL  SA DE CV 0000000000000004603292Ike Soluciones                          00                     000000009622013060701                                                                                 
020000124310100000000000580020130607                        51201306070020300005689235876625295TERESA VILLANUEVA CEBALLOS              5443978                                 ASESORIA INTEGRAL PROFESIONAL  SA DE CV 0000000000000004599182Ike Soluciones                          04                     000000000002013060701                                                                                 
020000125310100000000000580020130607                        51201306070020300005689234174100492FERNANDO LOZOYA IBARRA                  8646079                                 ASESORIA INTEGRAL PROFESIONAL  SA DE CV 0000000000000004600369Ike Soluciones                          04                     000000000002013060701                                                                                 
020000126310100000000000580020130607                        51201306070020300005689234108368199J GUADALUPE PEREZ SANCHEZ               8160837                                 ASESORIA INTEGRAL PROFESIONAL  SA DE CV 0000000000000004600062Ike Soluciones                          04                     000000000002013060701                                                                                 
020000127310100000000000580020130607                        51201306070020300005689230957491191MICAELA GONZALEZ NAJERA                 13919540                                ASESORIA INTEGRAL PROFESIONAL  SA DE CV 0000000000000004601953Ike Soluciones                          04                     000000000002013060701                                                                                 
020000128310100000000000580020130607                        51201306070020300005689230948788390ICELY CRUZ VAZQUEZ                      22752102                                ASESORIA INTEGRAL PROFESIONAL  SA DE CV 0000000000000004602904Ike Soluciones                          04                     000000000002013060701                                                                                 
020000129300100000000000580020130607                        51201306070020300005689233631027793MARIA DE LOS ANGELES HERNANDEZ CAMPOS   7712373                                 ASESORIA INTEGRAL PROFESIONAL  SA DE CV 0000000000000004599962Ike Soluciones                          00                     000000019642013060701                                                                                 
020000130310100000000001160020130607                        51201306070020300005689234246173493PATRICIA CANCINOS PEDROZA               12731022                                ASESORIA INTEGRAL PROFESIONAL  SA DE CV 0000000000000004601649Ike Soluciones                          04                     000000000002013060701                                                                                 
020000131310100000000000580020130607                        51201306070020300005689234604007697ANTONIO ALONSO MARTINEZ                 13203563                                ASESORIA INTEGRAL PROFESIONAL  SA DE CV 0000000000000004601901Ike Soluciones                          04                     000000000002013060701                                                                                 
020000132310100000000001160020130607                        51201306070020300005689230388229897ARMANDO HERNANDEZ AMADOR                22757596                                ASESORIA INTEGRAL PROFESIONAL  SA DE CV 0000000000000004602958Ike Soluciones                          10                     000000000002013060701                                                                                 
020000133310100000000000580020130607                        51201306070020300005689237142678499GUADALUPE MICHELIN LABRA RANGEL         15754321                                ASESORIA INTEGRAL PROFESIONAL  SA DE CV 0000000000000004602522Ike Soluciones                          10                     000000000002013060701                                                                                 
020000134310100000000000580020130607                        51201306070020300005689230097805693JUAN CARLOS LORENZO MARTINEZ            6870907                                 ASESORIA INTEGRAL PROFESIONAL  SA DE CV 0000000000000004599689Ike Soluciones                          01                     000000000002013060701                                                                                 
020000135310100000000001160020130607                        51201306070020300005689233762252392JOSEFINA ROSALVA YAÑEZ ZARAGOZA         8179179                                 ASESORIA INTEGRAL PROFESIONAL  SA DE CV 0000000000000004600130Ike Soluciones                          04                     000000000002013060701                                                                                 
020000136310100000000001160020130607                        51201306070020300005689230572973193MARCO ANTONIO LOZADA MARTINEZ           15732180                                ASESORIA INTEGRAL PROFESIONAL  SA DE CV 0000000000000004602430Ike Soluciones                          04                     000000000002013060701                                                                                 
020000137310100000000000580020130607                        51201306070020300005689235775757298ELODIA GUADALUPE ORTEGA ESCALANTE       9947931                                 ASESORIA INTEGRAL PROFESIONAL  SA DE CV 0000000000000004600812Ike Soluciones                          04                     000000000002013060701                                                                                 
020000138310100000000000580020130607                        51201306070020300005689237133423996J GUADALUPE URIBE GARCIA                8647156                                 ASESORIA INTEGRAL PROFESIONAL  SA DE CV 0000000000000004600377Ike Soluciones                          04                     000000000002013060701                                                                                 
020000139310100000000001160020130607                        51201306070020300005689230356994191ALMA EMILIA RIVADENEYRA HUERTA          8183251                                 ASESORIA INTEGRAL PROFESIONAL  SA DE CV 0000000000000004600143Ike Soluciones                          04                     000000000002013060701                                                                                 
020000140310100000000001160020130607                        51201306070020300005689234124200491MARIA DE JESUS HERNANDEZ RENDON         13191523                                ASESORIA INTEGRAL PROFESIONAL  SA DE CV 0000000000000004601848Ike Soluciones                          04                     000000000002013060701                                                                                 
020000141310100000000001160020130607                        51201306070020300005689233673289294ALBA LUZ MOROYOQUI SANDOVAL             8657219                                 ASESORIA INTEGRAL PROFESIONAL  SA DE CV 0000000000000004600403Ike Soluciones                          04                     000000000002013060701                                                                                 
020000142300100000000000580020130607                        51201306070020300005689230479148899FERNANDO HERNANDEZ JIMENEZ              22744266                                ASESORIA INTEGRAL PROFESIONAL  SA DE CV 0000000000000004602813Ike Soluciones                          00                     000000007622013060701                                                                                 
020000143310100000000001160020130607                        51201306070020300005689230623122295AGUSTIN ARELLANO CAMACHO                22770732                                ASESORIA INTEGRAL PROFESIONAL  SA DE CV 0000000000000004603023Ike Soluciones                          04                     000000000002013060701                                                                                 
020000144310100000000001160020130607                        51201306070020300005689234600834292JESUS ANTONIO CARLOS HERNANDEZ          6818185                                 ASESORIA INTEGRAL PROFESIONAL  SA DE CV 0000000000000004599520Ike Soluciones                          04                     000000000002013060701                                                                                 
020000145310100000000000580020130607                        51201306070020300005689233646592898MIGUEL ANGEL GARCIA PORTILLA            5601452                                 ASESORIA INTEGRAL PROFESIONAL  SA DE CV 0000000000000004599478Ike Soluciones                          04                     000000000002013060701                                                                                 
020000146310100000000000580020130607                        51201306070020300005689237114769599HUGO DE LIRA GONZALEZ                   11816064                                ASESORIA INTEGRAL PROFESIONAL  SA DE CV 0000000000000004601262Ike Soluciones                          04                     000000000002013060701                                                                                 
020000147310100000000001160020130607                        51201306070020300005689234059582996LIDIA AGUILAR HERNANDEZ                 8658330                                 ASESORIA INTEGRAL PROFESIONAL  SA DE CV 0000000000000004600405Ike Soluciones                          04                     000000000002013060701                                                                                 
020000148300100000000000580020130607                        51201306070020300005689230652377398MONICA GUZMAN ZAPATA                    22744621                                ASESORIA INTEGRAL PROFESIONAL  SA DE CV 0000000000000004602817Ike Soluciones                          00                     000000007892013060701                                                                                 
020000149310100000000000580020130607                        51201306070020300005689234702605590IRMA URBINA RUEDA                       13926142                                ASESORIA INTEGRAL PROFESIONAL  SA DE CV 0000000000000004601982Ike Soluciones                          04                     000000000002013060701                                                                                 
020000150310100000000001160020130607                        51201306070020300005689237095444592JESUS LOPEZ SORIA                       4686576                                 ASESORIA INTEGRAL PROFESIONAL  SA DE CV 0000000000000004599105Ike Soluciones                          04                     000000000002013060701                                                                                 
020000151310100000000000580020130607                        51201306070020300005689230993620696GERMAN LINARES GARZA                    14900201                                ASESORIA INTEGRAL PROFESIONAL  SA DE CV 0000000000000004602166Ike Soluciones                          04                     000000000002013060701                                                                                 
020000152310100000000000580020130607                        51201306070020300005689230974891894MIGUEL ANGEL ROMAN VAZQUEZ              14927691                                ASESORIA INTEGRAL PROFESIONAL  SA DE CV 0000000000000004602345Ike Soluciones                          04                     000000000002013060701                                                                                 
020000153310100000000001160020130607                        51201306070020300005689234239804799MARIA MONSERRAT RAMIREZ NUÑEZ           14925129                                ASESORIA INTEGRAL PROFESIONAL  SA DE CV 0000000000000004602323Ike Soluciones                          04                     000000000002013060701                                                                                 
020000154310100000000000580020130607                        51201306070020300005689230169983696MARGARITA VERONICA BARRAZA NAVARRETE    14913443                                ASESORIA INTEGRAL PROFESIONAL  SA DE CV 0000000000000004602232Ike Soluciones                          04                     000000000002013060701                                                                                 
020000155310100000000001160020130607                        51201306070020300005689234093966098LILIA PEREZ CONDE                       5458067                                 ASESORIA INTEGRAL PROFESIONAL  SA DE CV 0000000000000004599206Ike Soluciones                          04                     000000000002013060701                                                                                 
020000156310100000000000580020130607                        51201306070020300005689234285083496SILVIA KARINA HERNANDEZ GARCIA          9919070                                 ASESORIA INTEGRAL PROFESIONAL  SA DE CV 0000000000000004600722Ike Soluciones                          04                     000000000002013060701                                                                                 
020000157300100000000000580020130607                        51201306070020300005689230283538798JESUS VASQUEZ GERMAN                    22794362                                ASESORIA INTEGRAL PROFESIONAL  SA DE CV 0000000000000004603258Ike Soluciones                          00                     000000021452013060701                                                                                 
020000158310100000000000580020130607                        51201306070020300005689230197873398OLIVIA HERNANDEZ ESTRADA                11800929                                ASESORIA INTEGRAL PROFESIONAL  SA DE CV 0000000000000004601194Ike Soluciones                          04                     000000000002013060701                                                                                 
020000159310100000000001160020130607                        51201306070020300005689234084650198RAFAEL PATIÑO FIGUEROA                  5438768                                 ASESORIA INTEGRAL PROFESIONAL  SA DE CV 0000000000000004599173Ike Soluciones                          04                     000000000002013060701                                                                                 
020000160300100000000000580020130607                        51201306070020300005689234217265591FRANCISCO RODRIGUEZ GARZA               8153985                                 ASESORIA INTEGRAL PROFESIONAL  SA DE CV 0000000000000004600025Ike Soluciones                          00                     000000014562013060701                                                                                 
020000161310100000000001160020130607                        51201306070020300005689230200894894JOSE ENRIQUE PEREZ RAMIREZ              7692301                                 ASESORIA INTEGRAL PROFESIONAL  SA DE CV 0000000000000004599914Ike Soluciones                          04                     000000000002013060701                                                                                 
020000162310100000000000580020130607                        51201306070020300005689230111237397FRANCISCO GARCIA AVILA                  5599147                                 ASESORIA INTEGRAL PROFESIONAL  SA DE CV 0000000000000004599470Ike Soluciones                          04                     000000000002013060701                                                                                 
020000163310100000000000580020130607                        51201306070020300005689230809247791FRANCISCO ARTURO ROSAS GALLEGOS         11818592                                ASESORIA INTEGRAL PROFESIONAL  SA DE CV 0000000000000004601266Ike Soluciones                          04                     000000000002013060701                                                                                 
020000164310100000000001160020130607                        51201306070020300005689230968754397DIEGO MICHAEL GAMBOA JOSE               8168251                                 ASESORIA INTEGRAL PROFESIONAL  SA DE CV 0000000000000004600088Ike Soluciones                          04                     000000000002013060701                                                                                 
020000165310100000000000580020130607                        51201306070020300005689233676660599JOSEFINA BAEZ TINOCO                    8664084                                 ASESORIA INTEGRAL PROFESIONAL  SA DE CV 0000000000000004600433Ike Soluciones                          04                     000000000002013060701                                                                                 
020000166310100000000000580020130607                        51201306070020300005689230975044295YOSELINDA LOPEZ MONTIEL                 14909134                                ASESORIA INTEGRAL PROFESIONAL  SA DE CV 0000000000000004602215Ike Soluciones                          04                     000000000002013060701                                                                                 
020000167310100000000000580020130607                        51201306070020300005689235632180593FEDERICO RAMOS TLALOLINI                11479729                                ASESORIA INTEGRAL PROFESIONAL  SA DE CV 0000000000000004601088Ike Soluciones                          04                     000000000002013060701                                                                                 
020000168310100000000000580020130607                        51201306070020300005689234601875591AURELIO AMEZQUITA GALICIA               12142127                                ASESORIA INTEGRAL PROFESIONAL  SA DE CV 0000000000000004601391Ike Soluciones                          04                     000000000002013060701                                                                                 
020000169310100000000000580020130607                        51201306070020300005689236017775796MA DOLORES VARELA LAVADOR               7680566                                 ASESORIA INTEGRAL PROFESIONAL  SA DE CV 0000000000000004599882Ike Soluciones                          04                     000000000002013060701                                                                                 
020000170310100000000001160020130607                        51201306070020300005689234210955594TANIA LIZBETH HUERTA LOPEZ              8177837                                 ASESORIA INTEGRAL PROFESIONAL  SA DE CV 0000000000000004600126Ike Soluciones                          04                     000000000002013060701                                                                                 
020000171310100000000000580020130607                        51201306070020300005689230333308192HECTOR MANUEL ESPARZA REGALADO          12162444                                ASESORIA INTEGRAL PROFESIONAL  SA DE CV 0000000000000004601456Ike Soluciones                          04                     000000000002013060701                                                                                 
020000172310100000000000580020130607                        51201306070020300005689237126519099FRANCISCO CHACON RODRIGUEZ              5523192                                 ASESORIA INTEGRAL PROFESIONAL  SA DE CV 0000000000000004599347Ike Soluciones                          04                     000000000002013060701                                                                                 
020000173310100000000000580020130607                        51201306070020300005689233925199498NACIR BADI XACUR LOPEZ                  13961391                                ASESORIA INTEGRAL PROFESIONAL  SA DE CV 0000000000000004602103Ike Soluciones                          04                     000000000002013060701                                                                                 
020000174310100000000000580020130607                        51201306070020300005689235884148884ILEANA YOLANDA CORDOVA CRUZ             22773569                                ASESORIA INTEGRAL PROFESIONAL  SA DE CV 0000000000000004603049Ike Soluciones                          04                     000000000002013060701                                                                                 
020000175310100000000001160020130607                        51201306070020300005689230281177193MIGUEL TORRES GRIMALDO                  11799312                                ASESORIA INTEGRAL PROFESIONAL  SA DE CV 0000000000000004601188Ike Soluciones                          04                     000000000002013060701                                                                                 
020000176310100000000000580020130607                        51201306070020300005689234256247294MARGARITO LEAL MARTINEZ                 8886667                                 ASESORIA INTEGRAL PROFESIONAL  SA DE CV 0000000000000004600560Ike Soluciones                          04                     000000000002013060701                                                                                 
020000177310100000000000580020130607                        51201306070020300005689234344803199JUAN ALVAREZ AVILA                      13942015                                ASESORIA INTEGRAL PROFESIONAL  SA DE CV 0000000000000004602022Ike Soluciones                          04                     000000000002013060701                                                                                 
020000178310100000000000580020130607                        51201306070020300005689236386370380RUBEN MARES HERNANDEZ                   13195324                                ASESORIA INTEGRAL PROFESIONAL  SA DE CV 0000000000000004601865Ike Soluciones                          04                     000000000002013060701                                                                                 
020000179310100000000001160020130607                        51201306070020300005689230302365892ANA MARIA HERNANDEZ MARTINEZ            10240834                                ASESORIA INTEGRAL PROFESIONAL  SA DE CV 0000000000000004600903Ike Soluciones                          04                     000000000002013060701                                                                                 
020000180310100000000000580020130607                        51201306070020300005689230398835592ADAN FERNANDO URRUTIA VILLALOBOS        13170650                                ASESORIA INTEGRAL PROFESIONAL  SA DE CV 0000000000000004601741Ike Soluciones                          04                     000000000002013060701                                                                                 
020000181310100000000000580020130607                        51201306070020300005689230272592793LETICIA MARIA DOMINGUEZ GUICHARD        16824970                                ASESORIA INTEGRAL PROFESIONAL  SA DE CV 0000000000000004602779Ike Soluciones                          04                     000000000002013060701                                                                                 
020000182310100000000001160020130607                        51201306070020300005689230175545792MYRIAM DOLORES GONZALEZ ESPINOSA        12690646                                ASESORIA INTEGRAL PROFESIONAL  SA DE CV 0000000000000004601569Ike Soluciones                          04                     000000000002013060701                                                                                 
020000183310100000000000580020130607                        51201306070020300005689234552654896SEHIN CESAR CASTELAN ABURTO             14928367                                ASESORIA INTEGRAL PROFESIONAL  SA DE CV 0000000000000004602349Ike Soluciones                          04                     000000000002013060701                                                                                 
020000184310100000000001160020130607                        51201306070020300005689237072199490MANUEL ALEJANDRO GRANADO GIL            7681697                                 ASESORIA INTEGRAL PROFESIONAL  SA DE CV 0000000000000004599886Ike Soluciones                          04                     000000000002013060701                                                                                 
020000185310100000000000580020130607                        51201306070020300005689233857681893MARIA EVA RIOS FLORES                   38441804                                ASESORIA INTEGRAL PROFESIONAL  SA DE CV 0000000000000004603783Ike Soluciones                          04                     000000000002013060701                                                                                 
020000186310100000000001160020130607                        51201306070020300005689230103987191JORGE ARMANDO ALCOCER SAAVEDRA          13961288                                ASESORIA INTEGRAL PROFESIONAL  SA DE CV 0000000000000004602101Ike Soluciones                          04                     000000000002013060701                                                                                 
020000187310100000000000580020130607                        51201306070020300005689234154866393LIZBETH HERRERA JUAREZ                  7679606                                 ASESORIA INTEGRAL PROFESIONAL  SA DE CV 0000000000000004599876Ike Soluciones                          04                     000000000002013060701                                                                                 
020000188310100000000001160020130607                        51201306070020300005689230120019291GERARDO CHECA MONTALVO                  8643983                                 ASESORIA INTEGRAL PROFESIONAL  SA DE CV 0000000000000004600359Ike Soluciones                          04                     000000000002013060701                                                                                 
020000189310100000000001160020130607                        51201306070020300005689237101779098JUDITH CASTRO COLINA                    38424712                                ASESORIA INTEGRAL PROFESIONAL  SA DE CV 0000000000000004603704Ike Soluciones                          10                     000000000002013060701                                                                                 
020000190310100000000001160020130607                        51201306070020300005689234059986098ALBERTO MANUEL ARCE GALAN               12688744                                ASESORIA INTEGRAL PROFESIONAL  SA DE CV 0000000000000004601563Ike Soluciones                          04                     000000000002013060701                                                                                 
020000191310100000000000580020130607                        51201306070020300005689230282743795MARIA DE LOURDES SILVA RAMIREZ          13930164                                ASESORIA INTEGRAL PROFESIONAL  SA DE CV 0000000000000004602006Ike Soluciones                          04                     000000000002013060701                                                                                 
020000192310100000000000580020130607                        51201306070020300005689230317614094MARINA ESTHER MALDONADO ZARATE          14925956                                ASESORIA INTEGRAL PROFESIONAL  SA DE CV 0000000000000004602333Ike Soluciones                          04                     000000000002013060701                                                                                 
020000193310100000000000580020130607                        51201306070020300005689237095057295JOSE ALFREDO GUZMAN FLORES              6852177                                 ASESORIA INTEGRAL PROFESIONAL  SA DE CV 0000000000000004599642Ike Soluciones                          04                     000000000002013060701                                                                                 
020000194310100000000001160020130607                        51201306070020300005689230165315992ALFREDO ALEJANDRO CANTABRANA VALDEZ     14911512                                ASESORIA INTEGRAL PROFESIONAL  SA DE CV 0000000000000004602228Ike Soluciones                          04                     000000000002013060701                                                                                 
020000195310100000000000580020130607                        51201306070020300005689236370180696ITZIRARY YUNUEN GALVAN OJEDA            22758152                                ASESORIA INTEGRAL PROFESIONAL  SA DE CV 0000000000000004602964Ike Soluciones                          04                     000000000002013060701                                                                                 
020000196310100000000000580020130607                        51201306070020300005689230288121392JUAN RODRIGO HUERTA CEDILLO             22799714                                ASESORIA INTEGRAL PROFESIONAL  SA DE CV 0000000000000004603350Ike Soluciones                          04                     000000000002013060701                                                                                 
020000197310100000000000580020130607                        51201306070020300005689233553233693JULIETA GONZALEZ ESQUIVEL               7673823                                 ASESORIA INTEGRAL PROFESIONAL  SA DE CV 0000000000000004599866Ike Soluciones                          04                     000000000002013060701                                                                                 
020000198310100000000000580020130607                        51201306070020300005689234378614892SILVERIO DA MOTA ZANELLA                15750658                                ASESORIA INTEGRAL PROFESIONAL  SA DE CV 0000000000000004602504Ike Soluciones                          04                     000000000002013060701                                                                                 
020000199310100000000001160020130607                        51201306070020300005689236017322094JOSE BENITO GUSTAVO RODRIGUEZ CESPEDES  11809936                                ASESORIA INTEGRAL PROFESIONAL  SA DE CV 0000000000000004601242Ike Soluciones                          04                     000000000002013060701                                                                                 
020000200310100000000000580020130607                        51201306070020300005689230232729212MIGUEL ANGEL AGUIRRE MEDINA             8653594                                 ASESORIA INTEGRAL PROFESIONAL  SA DE CV 0000000000000004600397Ike Soluciones                          04                     000000000002013060701                                                                                 
020000201310100000000000580020130607                        51201306070020300005689234624248792MARIA TERESA MEJIA BLANCO               5489623                                 ASESORIA INTEGRAL PROFESIONAL  SA DE CV 0000000000000004599295Ike Soluciones                          04                     000000000002013060701                                                                                 
020000202310100000000000580020130607                        51201306070020300005689230333513197LETICIA MEJIA LUJAN                     11790062                                ASESORIA INTEGRAL PROFESIONAL  SA DE CV 0000000000000004601167Ike Soluciones                          04                     000000000002013060701                                                                                 
020000203310100000000000580020130607                        51201306070020300005689230133289217MARIA LAURA CASTAÑON LUNA               11786572                                ASESORIA INTEGRAL PROFESIONAL  SA DE CV 0000000000000004601161Ike Soluciones                          04                     000000000002013060701                                                                                 
020000204310100000000001160020130607                        51201306070020300005689234033530095JOSE ALMANZA JIMENEZ                    6814036                                 ASESORIA INTEGRAL PROFESIONAL  SA DE CV 0000000000000004599510Ike Soluciones                          04                     000000000002013060701                                                                                 
020000205310100000000000580020130607                        51201306070020300005689235579411092VICENTE LOPEZ BAUTISTA                  5502313                                 ASESORIA INTEGRAL PROFESIONAL  SA DE CV 0000000000000004599315Ike Soluciones                          01                     000000000002013060701                                                                                 
020000206310100000000001160020130607                        51201306070020300005689234228051196MA DE JESUS MONTAÑO VAZQUEZ             13166194                                ASESORIA INTEGRAL PROFESIONAL  SA DE CV 0000000000000004601725Ike Soluciones                          04                     000000000002013060701                                                                                 
020000207310100000000001160020130607                        51201306070020300005689230500520298JESUS RESENDIZ AGUILAR                  22745755                                ASESORIA INTEGRAL PROFESIONAL  SA DE CV 0000000000000004602827Ike Soluciones                          04                     000000000002013060701                                                                                 
020000208310100000000000580020130607                        51201306070020300005689234327702095MONICA TORRIJOS HERNANDEZ               11819667                                ASESORIA INTEGRAL PROFESIONAL  SA DE CV 0000000000000004601272Ike Soluciones                          04                     000000000002013060701                                                                                 
020000209310100000000000580020130607                        51201306070020300005689230346592790FRANCISCO JAVIER AYALA GALLARDO         11799106                                ASESORIA INTEGRAL PROFESIONAL  SA DE CV 0000000000000004601186Ike Soluciones                          04                     000000000002013060701                                                                                 
020000210310100000000000580020130607                        51201306070020300005689233604242198DOLORES ESCOBEDO ENRIQUEZ               10261195                                ASESORIA INTEGRAL PROFESIONAL  SA DE CV 0000000000000004600943Ike Soluciones                          04                     000000000002013060701                                                                                 
020000211300100000000000580020130607                        51201306070020300005689230642949793MARIA DE LOS ANGELES ROMERO MAZON       8612165                                 ASESORIA INTEGRAL PROFESIONAL  SA DE CV 0000000000000004600276Ike Soluciones                          00                     000000014472013060701                                                                                 
020000212300100000000000580020130607                        51201306070020300005689234498095790ISMAEL SANDOVAL RANGEL                  9930613                                 ASESORIA INTEGRAL PROFESIONAL  SA DE CV 0000000000000004600756Ike Soluciones                          00                     000000012342013060701                                                                                 
020000213310100000000000580020130607                        51201306070020300005689234299016292MA DEL CARMEN PEREZ GARCIA              12125087                                ASESORIA INTEGRAL PROFESIONAL  SA DE CV 0000000000000004601330Ike Soluciones                          04                     000000000002013060701                                                                                 
020000214310100000000001160020130607                        51201306070020300005689237116751991HORTENSIA MONREAL BADILLA               38447271                                ASESORIA INTEGRAL PROFESIONAL  SA DE CV 0000000000000004603805Ike Soluciones                          04                     000000000002013060701                                                                                 
020000215310100000000000580020130607                        51201306070020300005689233985485597GILBERTO CRUZ GOMEZ                     7692689                                 ASESORIA INTEGRAL PROFESIONAL  SA DE CV 0000000000000004599916Ike Soluciones                          04                     000000000002013060701                                                                                 
020000216300100000000000580020130607                        51201306070020300005689237160648390DIANA MARGARITA GARCIA MALDONADO        13178035                                ASESORIA INTEGRAL PROFESIONAL  SA DE CV 0000000000000004601767Ike Soluciones                          00                     000000021542013060701                                                                                 
020000217310100000000001160020130607                        51201306070020300005689230873153891MARIANA BRISEÑO GASCON                  22803698                                ASESORIA INTEGRAL PROFESIONAL  SA DE CV 0000000000000004603416Ike Soluciones                          04                     000000000002013060701                                                                                 
020000218310100000000000580020130607                        51201306070020300005689230121496597ERNESTO ROBINSON VAZQUEZ                13156344                                ASESORIA INTEGRAL PROFESIONAL  SA DE CV 0000000000000004601675Ike Soluciones                          04                     000000000002013060701                                                                                 
020000219310100000000000580020130607                        51201306070020300005689230272703999MARIA ISABEL GUTIERREZ HERNANDEZ        22811419                                ASESORIA INTEGRAL PROFESIONAL  SA DE CV 0000000000000004603525Ike Soluciones                          04                     000000000002013060701                                                                                 
020000220310100000000000580020130607                        51201306070020300005689234531320582PABLO GERONIMO CONTRERAS                22761324                                ASESORIA INTEGRAL PROFESIONAL  SA DE CV 0000000000000004602995Ike Soluciones                          04                     000000000002013060701                                                                                 
020000221310100000000000580020130607                        51201306070020300005689234229576399ARACELI ALMONACI GARCIA                 8639482                                 ASESORIA INTEGRAL PROFESIONAL  SA DE CV 0000000000000004600340Ike Soluciones                          04                     000000000002013060701                                                                                 
020000222310100000000000580020130607                        51201306070020300005689234007280990JOSE MARIANO ORTIZ MOLINA               7685004                                 ASESORIA INTEGRAL PROFESIONAL  SA DE CV 0000000000000004599900Ike Soluciones                          10                     000000000002013060701                                                                                 
020000223310100000000000580020130607                        51201306070020300005689234480645792MARIA DEL CARMEN VIRGEN ROBLES          22760807                                ASESORIA INTEGRAL PROFESIONAL  SA DE CV 0000000000000004602989Ike Soluciones                          04                     000000000002013060701                                                                                 
020000224310100000000000580020130607                        51201306070020300005689230911102298DOLORES ALVA MONROY                     22790384                                ASESORIA INTEGRAL PROFESIONAL  SA DE CV 0000000000000004603212Ike Soluciones                          04                     000000000002013060701                                                                                 
020000225310100000000000580020130607                        51201306070020300005689234289540491ORLANDO GUSTAVO VEGA LARIOS             11805171                                ASESORIA INTEGRAL PROFESIONAL  SA DE CV 0000000000000004601216Ike Soluciones                          04                     000000000002013060701                                                                                 
020000226310100000000000580020130607                        51201306070020300005689234343427990ISMAEL CUEVAS TOVAR                     15754998                                ASESORIA INTEGRAL PROFESIONAL  SA DE CV 0000000000000004602526Ike Soluciones                          04                     000000000002013060701                                                                                 
020000227310100000000000580020130607                        51201306070020300005689233981480196NORMA ANGELICA VALDEZ DURAN             8154866                                 ASESORIA INTEGRAL PROFESIONAL  SA DE CV 0000000000000004600033Ike Soluciones                          04                     000000000002013060701                                                                                 
020000228310100000000001160020130607                        51201306070020300005689237140909995IRMA LUISA GOMEZ PONS                   6825462                                 ASESORIA INTEGRAL PROFESIONAL  SA DE CV 0000000000000004599553Ike Soluciones                          04                     000000000002013060701                                                                                 
020000229310100000000000580020130607                        51201306070020300005689234687853397JOSE OMAR OLVERA VASQUEZ                12143854                                ASESORIA INTEGRAL PROFESIONAL  SA DE CV 0000000000000004601399Ike Soluciones                          04                     000000000002013060701                                                                                 
020000230310100000000000580020130607                        51201306070020300005689234164272798JOSE ARNULFO GARCIA ESQUIVEL            6823132                                 ASESORIA INTEGRAL PROFESIONAL  SA DE CV 0000000000000004599545Ike Soluciones                          04                     000000000002013060701                                                                                 
020000231310100000000000580020130607                        51201306070020300005689233669241993MA FELIX BAHENA MUNDO                   5483716                                 ASESORIA INTEGRAL PROFESIONAL  SA DE CV 0000000000000004599285Ike Soluciones                          04                     000000000002013060701                                                                                 
020000232310100000000001160020130607                        51201306070020300005689238017564592MARIA DE LA LUZ MANZANO VICTORIANO      22808424                                ASESORIA INTEGRAL PROFESIONAL  SA DE CV 0000000000000004603479Ike Soluciones                          04                     000000000002013060701                                                                                 
020000233310100000000000580020130607                        51201306070020300005689233603394792SOFIA GACHUZ SANCHEZ                    10259146                                ASESORIA INTEGRAL PROFESIONAL  SA DE CV 0000000000000004600941Ike Soluciones                          04                     000000000002013060701                                                                                 
020000234310100000000000580020130607                        51201306070020300005689230490638290MONICA GEORGINA MARTINEZ                12685254                                ASESORIA INTEGRAL PROFESIONAL  SA DE CV 0000000000000004601549Ike Soluciones                          04                     000000000002013060701                                                                                 
020000235310100000000000580020130607                        51201306070020300005689230255477991YAXSEEL SARAY SANCHEZ FLORES            16806023                                ASESORIA INTEGRAL PROFESIONAL  SA DE CV 0000000000000004602685Ike Soluciones                          04                     000000000002013060701                                                                                 
020000236310100000000001160020130607                        51201306070020300005689230853323993RENE GARCIA MONTERRUBIO                 22751299                                ASESORIA INTEGRAL PROFESIONAL  SA DE CV 0000000000000004602893Ike Soluciones                          10                     000000000002013060701                                                                                 
020000237310100000000001160020130607                        51201306070020300005689233536717399SUSANA MURILLO LOPEZ                    7660112                                 ASESORIA INTEGRAL PROFESIONAL  SA DE CV 0000000000000004599818Ike Soluciones                          04                     000000000002013060701                                                                                 
020000238310100000000000580020130607                        51201306070020300005689230333521398GILBERTO CARLOS FERNANDEZ SANCHEZ       9956009                                 ASESORIA INTEGRAL PROFESIONAL  SA DE CV 0000000000000004600840Ike Soluciones                          04                     000000000002013060701                                                                                 
020000239310100000000000580020130607                        51201306070020300005689235441331494ELISA MANCILLA MACIAS                   5435272                                 ASESORIA INTEGRAL PROFESIONAL  SA DE CV 0000000000000004599167Ike Soluciones                          04                     000000000002013060701                                                                                 
020000240310100000000000580020130607                        51201306070020300005689230383816896JOSE NICANDRO GAMBOA SIFUENTES          12702544                                ASESORIA INTEGRAL PROFESIONAL  SA DE CV 0000000000000004601589Ike Soluciones                          04                     000000000002013060701                                                                                 
020000241300100000000000580020130607                        51201306070020300005689230775008292MARIA GUADALUPE CORONADO GONZALEZ       16808758                                ASESORIA INTEGRAL PROFESIONAL  SA DE CV 0000000000000004602701Ike Soluciones                          00                     000000012332013060701                                                                                 
020000242310100000000001160020130607                        51201306070020300005689234374859491JOEL MARGARITO ZUÑIGA ARMENTA           14904094                                ASESORIA INTEGRAL PROFESIONAL  SA DE CV 0000000000000004602184Ike Soluciones                          04                     000000000002013060701                                                                                 
020000243310100000000000580020130607                        51201306070020300005689236011446493MARIA ELENA VARGAS ATZIN                15765823                                ASESORIA INTEGRAL PROFESIONAL  SA DE CV 0000000000000004602566Ike Soluciones                          04                     000000000002013060701                                                                                 
020000244310100000000001160020130607                        51201306070020300005689233578266397HELENA DE LOS REYES CRUZ                13952927                                ASESORIA INTEGRAL PROFESIONAL  SA DE CV 0000000000000004602052Ike Soluciones                          04                     000000000002013060701                                                                                 
020000245310100000000001160020130607                        51201306070020300005689230193824296ELIA CRISTINA ALVAREZ GREEN             11792281                                ASESORIA INTEGRAL PROFESIONAL  SA DE CV 0000000000000004601176Ike Soluciones                          10                     000000000002013060701                                                                                 
020000246310100000000000580020130607                        51201306070020300005689236385562599OLGA LETICIA COSS BU                    8195553                                 ASESORIA INTEGRAL PROFESIONAL  SA DE CV 0000000000000004600167Ike Soluciones                          01                     000000000002013060701                                                                                 
020000247310100000000000580020130607                        51201306070020300005689230970916695JOSE HUGO CORDOBA GIRON                 11476815                                ASESORIA INTEGRAL PROFESIONAL  SA DE CV 0000000000000004601078Ike Soluciones                          04                     000000000002013060701                                                                                 
020000248310100000000001160020130607                        51201306070020300005689233936089092CLAUDIA VERONICA IBARRA RODRIGUEZ       14936820                                ASESORIA INTEGRAL PROFESIONAL  SA DE CV 0000000000000004602386Ike Soluciones                          04                     000000000002013060701                                                                                 
020000249310100000000001160020130607                        51201306070020300005689236520777698MARIA J GONZALEZ PALACIOS               8653752                                 ASESORIA INTEGRAL PROFESIONAL  SA DE CV 0000000000000004600399Ike Soluciones                          04                     000000000002013060701                                                                                 
