01000000131002S21300000201502130100                         ARSA ASESORIA INTEGRAL PROFESIONAL S DE  AIP900419FI1                                                                                                                                                                                           00000911799700                                                                                      
020000002340100000000000812020150216                        51201412010020300005204164929502398JOSE IBARRA CONTRERAS                   84861832                                ASESORIA INTEGRAL PROFESIONAL SA DE CV  0000000000000001782296Ike Soluciones DICIEMBRE                00                     000000000002014120102                                                                               
020000003340100000000000812020150216                        51201501020020300005204164929502398JOSE IBARRA CONTRERAS                   84861832                                ASESORIA INTEGRAL PROFESIONAL SA DE CV  0000000000000006002472Ike Soluciones ENERO                    00                     000000000002015010202                                                                               
020000004340100000000000812020150216                        51201502030020300005204164929502398JOSE IBARRA CONTRERAS                   84861832                                ASESORIA INTEGRAL PROFESIONAL SA DE CV  0000000000000001345286Ike Soluciones FEBRERO                  00                     000000000002015020302                                                                               
0900000053013000000000003000000000000024360                                                                                                                                                                                                                                                                                                                                                                     
