01000000100021S211588092015021101002                                                                           DOMIIKE1                                                                                                                                                                                                                                                                                                                                                                          0
020000002310120141124021021000000000008004                51201411210100000000004038892980Proteccion SOS Juridico Automovilistico PSO880407SN0      0100000000004032139891LUIS DAVID  ALVARADO VALDIVIA           RFC NO DISPONIBLE 288056                                  Proteccion SOS Juridico Automovilistico 0000000000000000000002UNIVERSO HOGAR HSBC DEBITO NOVIEMBRE    02102100021000620141121004907 1320141121            288056                                                      
020000003310120141203021021000000000008004                51201412020100000000004038892980Proteccion SOS Juridico Automovilistico PSO880407SN0      0100000000004032139891LUIS DAVID  ALVARADO VALDIVIA           RFC NO DISPONIBLE 288056                                  Proteccion SOS Juridico Automovilistico 0000000000000000000002UNIVERSO HOGAR HSBC DEBITO DICIEMBRE    02102100021000620141202011148 1320141202            288056                                                      
020000004310120150105021021000000000008004                51201501020100000000004038892980Proteccion SOS Juridico Automovilistico PSO880407SN0      0100000000004032139891LUIS DAVID  ALVARADO VALDIVIA           RFC NO DISPONIBLE 288056                                  Proteccion SOS Juridico Automovilistico 0000000000000000000002UNIVERSO HOGAR HSBC DEBITO ENERO        02102100021000620150102014049 1320150102            288056                                                      
020000002310120141203021021000000000008004                51201412020100000000004038892980Proteccion SOS Juridico Automovilistico PSO880407SN0      0100000000006342827352JOSE JOAQUIN  FLORES CAMPOS             RFC NO DISPONIBLE 294660                                  Proteccion SOS Juridico Automovilistico 0000000000000000000002UNIVERSO HOGAR HSBC DEBITO DICIEMBRE    02102100021000620141202011819 1320141202            294660                                                      
0900000050011588090000003000000000000024012                                                                                                                                                                                                                                                                                                                                                                                                                                                    0  
